{
  "contractName": "ArtMarketplace",
  "abi": [
    {
      "inputs": [
        {
          "internalType": "contract ArtToken",
          "name": "_token",
          "type": "address"
        }
      ],
      "stateMutability": "nonpayable",
      "type": "constructor"
    },
    {
      "anonymous": false,
      "inputs": [
        {
          "indexed": false,
          "internalType": "uint256",
          "name": "id",
          "type": "uint256"
        },
        {
          "indexed": false,
          "internalType": "uint256",
          "name": "tokenId",
          "type": "uint256"
        },
        {
          "indexed": false,
          "internalType": "uint256",
          "name": "price",
          "type": "uint256"
        }
      ],
      "name": "itemAddedForSale",
      "type": "event"
    },
    {
      "anonymous": false,
      "inputs": [
        {
          "indexed": false,
          "internalType": "uint256",
          "name": "id",
          "type": "uint256"
        },
        {
          "indexed": false,
          "internalType": "address",
          "name": "buyer",
          "type": "address"
        },
        {
          "indexed": false,
          "internalType": "uint256",
          "name": "price",
          "type": "uint256"
        }
      ],
      "name": "itemSold",
      "type": "event"
    },
    {
      "inputs": [
        {
          "internalType": "uint256",
          "name": "",
          "type": "uint256"
        }
      ],
      "name": "activeItems",
      "outputs": [
        {
          "internalType": "bool",
          "name": "",
          "type": "bool"
        }
      ],
      "stateMutability": "view",
      "type": "function",
      "constant": true
    },
    {
      "inputs": [
        {
          "internalType": "uint256",
          "name": "",
          "type": "uint256"
        }
      ],
      "name": "itemsForSale",
      "outputs": [
        {
          "internalType": "uint256",
          "name": "id",
          "type": "uint256"
        },
        {
          "internalType": "uint256",
          "name": "tokenId",
          "type": "uint256"
        },
        {
          "internalType": "address payable",
          "name": "seller",
          "type": "address"
        },
        {
          "internalType": "uint256",
          "name": "price",
          "type": "uint256"
        },
        {
          "internalType": "bool",
          "name": "isSold",
          "type": "bool"
        }
      ],
      "stateMutability": "view",
      "type": "function",
      "constant": true
    },
    {
      "inputs": [
        {
          "internalType": "uint256",
          "name": "tokenId",
          "type": "uint256"
        },
        {
          "internalType": "uint256",
          "name": "price",
          "type": "uint256"
        }
      ],
      "name": "putItemForSale",
      "outputs": [
        {
          "internalType": "uint256",
          "name": "",
          "type": "uint256"
        }
      ],
      "stateMutability": "nonpayable",
      "type": "function"
    },
    {
      "inputs": [
        {
          "internalType": "uint256",
          "name": "id",
          "type": "uint256"
        }
      ],
      "name": "buyItem",
      "outputs": [],
      "stateMutability": "payable",
      "type": "function",
      "payable": true
    },
    {
      "inputs": [],
      "name": "totalItemsForSale",
      "outputs": [
        {
          "internalType": "uint256",
          "name": "",
          "type": "uint256"
        }
      ],
      "stateMutability": "view",
      "type": "function",
      "constant": true
    }
  ],
  "bytecode": "0x60806040523480156200001157600080fd5b506040516200130e3803806200130e8339818101604052810190620000379190620000fd565b80600160006101000a81548173ffffffffffffffffffffffffffffffffffffffff021916908373ffffffffffffffffffffffffffffffffffffffff160217905550506200012f565b600080fd5b600073ffffffffffffffffffffffffffffffffffffffff82169050919050565b6000620000b18262000084565b9050919050565b6000620000c582620000a4565b9050919050565b620000d781620000b8565b8114620000e357600080fd5b50565b600081519050620000f781620000cc565b92915050565b6000602082840312156200011657620001156200007f565b5b60006200012684828501620000e6565b91505092915050565b6111cf806200013f6000396000f3fe60806040526004361061004a5760003560e01c8063092d0afc1461004f5780639c318c7b14610090578063e7fb74c7146100cd578063ec8120c9146100e9578063f4f3576414610114575b600080fd5b34801561005b57600080fd5b5061007660048036038101906100719190610bc3565b610151565b604051610087959493929190610c5b565b60405180910390f35b34801561009c57600080fd5b506100b760048036038101906100b29190610bc3565b6101c4565b6040516100c49190610cae565b60405180910390f35b6100e760048036038101906100e29190610bc3565b6101e4565b005b3480156100f557600080fd5b506100fe610760565b60405161010b9190610cc9565b60405180910390f35b34801561012057600080fd5b5061013b60048036038101906101369190610ce4565b61076d565b6040516101489190610cc9565b60405180910390f35b6002818154811061016157600080fd5b90600052602060002090600502016000915090508060000154908060010154908060020160009054906101000a900473ffffffffffffffffffffffffffffffffffffffff16908060030154908060040160009054906101000a900460ff16905085565b60036020528060005260406000206000915054906101000a900460ff1681565b806002805490508110801561021d5750806002828154811061020957610208610d24565b5b906000526020600020906005020160000154145b61025c576040517f08c379a000000000000000000000000000000000000000000000000000000000815260040161025390610db0565b60405180910390fd5b816002818154811061027157610270610d24565b5b906000526020600020906005020160040160009054906101000a900460ff16156102d0576040517f08c379a00000000000000000000000000000000000000000000000000000000081526004016102c790610e1c565b60405180910390fd5b600283815481106102e4576102e3610d24565b5b9060005260206000209060050201600101543073ffffffffffffffffffffffffffffffffffffffff16600160009054906101000a900473ffffffffffffffffffffffffffffffffffffffff1673ffffffffffffffffffffffffffffffffffffffff1663081812fc836040518263ffffffff1660e01b81526004016103689190610cc9565b602060405180830381865afa158015610385573d6000803e3d6000fd5b505050506040513d601f19601f820116820180604052508101906103a99190610e7a565b73ffffffffffffffffffffffffffffffffffffffff16146103ff576040517f08c379a00000000000000000000000000000000000000000000000000000000081526004016103f690610ef3565b60405180910390fd5b6002848154811061041357610412610d24565b5b906000526020600020906005020160030154341015610467576040517f08c379a000000000000000000000000000000000000000000000000000000000815260040161045e90610f5f565b60405180910390fd5b6002848154811061047b5761047a610d24565b5b906000526020600020906005020160020160009054906101000a900473ffffffffffffffffffffffffffffffffffffffff1673ffffffffffffffffffffffffffffffffffffffff163373ffffffffffffffffffffffffffffffffffffffff16036104e457600080fd5b6001600285815481106104fa576104f9610d24565b5b906000526020600020906005020160040160006101000a81548160ff0219169083151502179055506000600360006002878154811061053c5761053b610d24565b5b906000526020600020906005020160010154815260200190815260200160002060006101000a81548160ff021916908315150217905550600160009054906101000a900473ffffffffffffffffffffffffffffffffffffffff1673ffffffffffffffffffffffffffffffffffffffff166342842e0e600286815481106105c5576105c4610d24565b5b906000526020600020906005020160020160009054906101000a900473ffffffffffffffffffffffffffffffffffffffff16336002888154811061060c5761060b610d24565b5b9060005260206000209060050201600101546040518463ffffffff1660e01b815260040161063c93929190610fed565b600060405180830381600087803b15801561065657600080fd5b505af115801561066a573d6000803e3d6000fd5b505050506002848154811061068257610681610d24565b5b906000526020600020906005020160020160009054906101000a900473ffffffffffffffffffffffffffffffffffffffff1673ffffffffffffffffffffffffffffffffffffffff166108fc349081150290604051600060405180830381858888f193505050501580156106f9573d6000803e3d6000fd5b507f8164c6f8917e418c49813e4586897c7067de5a886aa1bea980cd11fa57d4826484336002878154811061073157610730610d24565b5b90600052602060002090600502016003015460405161075293929190611024565b60405180910390a150505050565b6000600280549050905090565b6000823373ffffffffffffffffffffffffffffffffffffffff16600160009054906101000a900473ffffffffffffffffffffffffffffffffffffffff1673ffffffffffffffffffffffffffffffffffffffff16636352211e836040518263ffffffff1660e01b81526004016107e29190610cc9565b602060405180830381865afa1580156107ff573d6000803e3d6000fd5b505050506040513d601f19601f820116820180604052508101906108239190610e7a565b73ffffffffffffffffffffffffffffffffffffffff1614610879576040517f08c379a0000000000000000000000000000000000000000000000000000000008152600401610870906110a7565b60405180910390fd5b833073ffffffffffffffffffffffffffffffffffffffff16600160009054906101000a900473ffffffffffffffffffffffffffffffffffffffff1673ffffffffffffffffffffffffffffffffffffffff1663081812fc836040518263ffffffff1660e01b81526004016108ec9190610cc9565b602060405180830381865afa158015610909573d6000803e3d6000fd5b505050506040513d601f19601f8201168201806040525081019061092d9190610e7a565b73ffffffffffffffffffffffffffffffffffffffff1614610983576040517f08c379a000000000000000000000000000000000000000000000000000000000815260040161097a90610ef3565b60405180910390fd5b6003600086815260200190815260200160002060009054906101000a900460ff16156109e4576040517f08c379a00000000000000000000000000000000000000000000000000000000081526004016109db90611113565b60405180910390fd5b6000600280549050905060026040518060a001604052808381526020018881526020013373ffffffffffffffffffffffffffffffffffffffff168152602001878152602001600015158152509080600181540180825580915050600190039060005260206000209060050201600090919091909150600082015181600001556020820151816001015560408201518160020160006101000a81548173ffffffffffffffffffffffffffffffffffffffff021916908373ffffffffffffffffffffffffffffffffffffffff1602179055506060820151816003015560808201518160040160006101000a81548160ff021916908315150217905550505060016003600088815260200190815260200160002060006101000a81548160ff0219169083151502179055508060028281548110610b2157610b20610d24565b5b90600052602060002090600502016000015414610b4157610b40611133565b5b7fafd8780f802588de8705083b0f6a33ac59b8d0228c80f9babe0549c1621c33f8818787604051610b7493929190611162565b60405180910390a180935050505092915050565b600080fd5b6000819050919050565b610ba081610b8d565b8114610bab57600080fd5b50565b600081359050610bbd81610b97565b92915050565b600060208284031215610bd957610bd8610b88565b5b6000610be784828501610bae565b91505092915050565b610bf981610b8d565b82525050565b600073ffffffffffffffffffffffffffffffffffffffff82169050919050565b6000610c2a82610bff565b9050919050565b610c3a81610c1f565b82525050565b60008115159050919050565b610c5581610c40565b82525050565b600060a082019050610c706000830188610bf0565b610c7d6020830187610bf0565b610c8a6040830186610c31565b610c976060830185610bf0565b610ca46080830184610c4c565b9695505050505050565b6000602082019050610cc36000830184610c4c565b92915050565b6000602082019050610cde6000830184610bf0565b92915050565b60008060408385031215610cfb57610cfa610b88565b5b6000610d0985828601610bae565b9250506020610d1a85828601610bae565b9150509250929050565b7f4e487b7100000000000000000000000000000000000000000000000000000000600052603260045260246000fd5b600082825260208201905092915050565b7f436f756c64206e6f742066696e64206974656d00000000000000000000000000600082015250565b6000610d9a601383610d53565b9150610da582610d64565b602082019050919050565b60006020820190508181036000830152610dc981610d8d565b9050919050565b7f4974656d20697320616c726561647920736f6c64000000000000000000000000600082015250565b6000610e06601483610d53565b9150610e1182610dd0565b602082019050919050565b60006020820190508181036000830152610e3581610df9565b9050919050565b6000610e4782610bff565b9050919050565b610e5781610e3c565b8114610e6257600080fd5b50565b600081519050610e7481610e4e565b92915050565b600060208284031215610e9057610e8f610b88565b5b6000610e9e84828501610e65565b91505092915050565b7f4d61726b6574206973206e6f7420617070726f76656400000000000000000000600082015250565b6000610edd601683610d53565b9150610ee882610ea7565b602082019050919050565b60006020820190508181036000830152610f0c81610ed0565b9050919050565b7f4e6f7420656e6f7567682066756e64732073656e740000000000000000000000600082015250565b6000610f49601583610d53565b9150610f5482610f13565b602082019050919050565b60006020820190508181036000830152610f7881610f3c565b9050919050565b6000819050919050565b6000610fa4610f9f610f9a84610bff565b610f7f565b610bff565b9050919050565b6000610fb682610f89565b9050919050565b6000610fc882610fab565b9050919050565b610fd881610fbd565b82525050565b610fe781610e3c565b82525050565b60006060820190506110026000830186610fcf565b61100f6020830185610fde565b61101c6040830184610bf0565b949350505050565b60006060820190506110396000830186610bf0565b6110466020830185610fde565b6110536040830184610bf0565b949350505050565b7f53656e64657220646f6573206e6f74206f776e20746865206974656d00000000600082015250565b6000611091601c83610d53565b915061109c8261105b565b602082019050919050565b600060208201905081810360008301526110c081611084565b9050919050565b7f4974656d20697320616c726561647920757020666f722073616c650000000000600082015250565b60006110fd601b83610d53565b9150611108826110c7565b602082019050919050565b6000602082019050818103600083015261112c816110f0565b9050919050565b7f4e487b7100000000000000000000000000000000000000000000000000000000600052600160045260246000fd5b60006060820190506111776000830186610bf0565b6111846020830185610bf0565b6111916040830184610bf0565b94935050505056fea2646970667358221220781d9a04bf2d41861daf2f6508e19de3a24e61ccf7f919616c5431a3c1d7e3a564736f6c634300080f0033",
  "immutableReferences": {},
  "source": "// SPDX-License-Identifier: MIT\npragma solidity ^0.8.0;\n\nimport \"./ArtToken.sol\";\n\ncontract ArtMarketplace {\n  uint256 itemCounter;\n  ArtToken private token;\n\n  struct ItemForSale {\n    uint256 id;\n    uint256 tokenId;\n    address payable seller;\n    uint256 price;\n    bool isSold;\n  }\n\n  // Will change array to mapping\n  ItemForSale[] public itemsForSale;\n  mapping(uint256 => bool) public activeItems; // tokenId => ativo?\n\n  event itemAddedForSale(uint256 id, uint256 tokenId, uint256 price);\n  event itemSold(uint256 id, address buyer, uint256 price);\n\n  constructor(ArtToken _token) {\n      token = _token;\n  }\n\n  modifier OnlyItemOwner(uint256 tokenId){\n    require(token.ownerOf(tokenId) == msg.sender, \"Sender does not own the item\");\n    _;\n  }\n\n  modifier HasTransferApproval(uint256 tokenId){\n    require(token.getApproved(tokenId) == address(this), \"Market is not approved\");\n    _;\n  }\n\n  modifier ItemExists(uint256 id){\n    require(id < itemsForSale.length && itemsForSale[id].id == id, \"Could not find item\");\n    _;\n  }\n\n  modifier IsForSale(uint256 id){\n    require(!itemsForSale[id].isSold, \"Item is already sold\");\n    _;\n  }\n\n  function putItemForSale(uint256 tokenId, uint256 price) \n    OnlyItemOwner(tokenId) \n    HasTransferApproval(tokenId) \n    external \n    returns (uint256){\n      require(!activeItems[tokenId], \"Item is already up for sale\");\n\n      uint256 newItemId = itemsForSale.length;\n      itemsForSale.push(ItemForSale({\n        id: newItemId,\n        tokenId: tokenId,\n        seller: payable(msg.sender),\n        price: price,\n        isSold: false\n      }));\n      activeItems[tokenId] = true;\n\n      assert(itemsForSale[newItemId].id == newItemId);\n      emit itemAddedForSale(newItemId, tokenId, price);\n      return newItemId;\n  }\n\n  function buyItem(uint256 id) \n    ItemExists(id)\n    IsForSale(id)\n    HasTransferApproval(itemsForSale[id].tokenId)\n    payable \n    external {\n      require(msg.value >= itemsForSale[id].price, \"Not enough funds sent\");\n      require(msg.sender != itemsForSale[id].seller);\n\n      itemsForSale[id].isSold = true;\n      activeItems[itemsForSale[id].tokenId] = false;\n      token.safeTransferFrom(itemsForSale[id].seller, msg.sender, itemsForSale[id].tokenId);\n      itemsForSale[id].seller.transfer(msg.value);\n\n      emit itemSold(id, msg.sender, itemsForSale[id].price);\n    }\n\n  function totalItemsForSale() external view returns(uint256) {\n    return itemsForSale.length;\n  }\n}\n\n//TODO:\n// - don't support bidding\n// - the user can't withdraw the item\n",
  "sourcePath": "/Users/sagarbehara/Work/chain/reit/Express-NFT-Marketplace/contracts/ArtMarketplace.sol",
  "compiler": {
    "name": "solc",
    "version": "0.8.15+commit.e14f2714.Emscripten.clang"
  },
  "schemaVersion": "3.4.1",
  "updatedAt": "2022-07-12T13:23:35.224Z",
  "networkType": "ethereum",
  "devdoc": {
    "kind": "dev",
    "methods": {},
    "version": 1
  },
  "userdoc": {
    "kind": "user",
    "methods": {},
    "version": 1
  }
}